:1000000007C1000033C1000031C100002FC1000052
:100010002DC100002BC1000029C1000027C1000034
:1000200025C1000023C1000021C100001FC1000044
:100030001DC100001BC1000019C1000017C1000054
:1000400015C1000013C1000011C100000FC1000064
:100050000DC100000BC1000009C100006EC200000C
:1000600005C100002FC3000004C30000FFC0000052
:10007000FDC00000FBC00000F9C00000F7C0000098
:10008000F5C00000F3C00000F1C00000EFC00000A8
:10009000C7C200009CC20000E9C00000E7C0000029
:1000A000E5C00000E3C00000E1C00000DFC00000C8
:1000B000DDC00000DBC00000D9C00000D7C00000D8
:1000C000D5C00000D3C00000D1C00000CFC00000E8
:1000D000CDC00000CBC00000C9C00000C7C00000F8
:1000E000C5C000001E05210510051405180558059A
:1000F000250529052F05330537053D05410545052E
:1001000058054B054F05530500002100240027002A
:100110002A002D0030003300010100000401070116
:100120000A0100002200250028002B002E003100CB
:10013000340002010000050108010B010505050559
:10014000070508080808020202020A0A080804044F
:10015000040401010101010101010303030303037D
:100160000303040707070C0C0C0C0C0C0C0C02020C
:10017000020206060606060606060B0B0B0B0B0B09
:100180000B0B010210202008081020401020408096
:10019000020102010804020101020408102040804B
:1001A00080402010080402018004020180402010D9
:1001B0000804020108040201010204081020408022
:1001C000010204081020408000000A0B02090C0DF7
:1001D0000E080703040100000000000000000000FA
:1001E000000000000000000000000000000000000F
:1001F00000000000121110000000000000000000CC
:1002000000000000000000000000000000008B0360
:1002100011241FBECFEFD1E2DEBFCDBF00E00CBF87
:1002200013E0A0E0B2E0E4E4FBE000E00BBF02C0BA
:1002300007900D92AA3BB107D9F724E0AAEBB3E0EF
:1002400001C01D92AD3FB207E1F711E0C8E0D1E077
:1002500000E005C021970109802FFE0165D4C73059
:10026000D10780E00807B1F7A9D26AC4C9CECF92FE
:10027000DF92EF92FF920F931F93CF93DF936C0166
:100280007A018B01C0E0D0E0CE15DF0589F0D801FE
:100290006D918D01D601ED91FC910190F081E02DE1
:1002A000C6011995892B11F47E0102C02196ECCF6D
:1002B000C701DF91CF911F910F91FF90EF90DF90D9
:1002C000CF900895FC01A089B1898C91A689B78946
:1002D00082FD0FC09C91818D8F5F8F73228D82175D
:1002E00049F0218DDF01A20FB11D5D969C93818F96
:1002F00008958C910895FC01918D828D981761F07D
:10030000828DDF01A80FB11D5D968C91928D9F5F4C
:100310009F73928F90E008958FEF9FEF0895FC01F7
:10032000918D828D981731F0828DE80FF11D858DAA
:1003300090E008958FEF9FEF0895FC01918D228D3D
:10034000892F90E0805C9F4F821B91098F739927C2
:10035000089583EC93E0F1DF21E0892B09F420E09C
:10036000822F089580E694E0E8DF21E0892B09F4EC
:1003700020E0822F0895FC01848DDF01A80FB11DBC
:10038000A35ABF4F2C91848D90E001968F739927CB
:10039000848FA689B7892C93A089B1898C918064B8
:1003A0008C93938D848D981306C00288F389E02D79
:1003B00080818F7D80830895EF92FF920F931F932A
:1003C000CF93DF93EC0181E0888F9B8D8C8D981308
:1003D00005C0E889F989808185FD23C0F62E0B8D43
:1003E00010E00F5F1F4F0F731127E02E8C8DE81266
:1003F0000BC00FB607FCFACFE889F989808185FF29
:10040000F5CFCE01B8DFF2CF8B8DFE01E80FF11DE5
:10041000E35AFF4FF0820B8FEA89FB89808180626B
:1004200007C0EE89FF896083E889F989808180644B
:10043000808381E090E0DF91CF911F910F91FF9039
:10044000EF900895CF93DF93EC01888D8823C1F05E
:10045000EA89FB89808185FD05C0A889B9898C91CD
:1004600086FD0EC00FB607FCF5CF808185FFF2CF69
:10047000A889B9898C9185FFEDCFCE017CDFE8CFCB
:10048000DF91CF91089580E090E0892B19F06ADF29
:10049000811120C080E090E0892B19F05ADF811192
:1004A0001CC080E090E0892B41F080E090E0892B37
:1004B00021F00E940000811113C080E090E0892BA0
:1004C000A1F080E090E0892B81F00E940000811172
:1004D0000AC008950E940000DDCF0E940000E1CF15
:1004E0000E940000EACF0C940000089525D3611506
:1004F000710579F0FB0101900020E9F73197AF0118
:10050000461B570BDC01ED91FC910280F381E02D3D
:10051000199480E090E00895CF93DF93BC0180E6CA
:1005200094E0E5DFEC0161E172E080E694E0DFDF7A
:100530008C0F9D1FDF91CF9108951F920F920FB6E0
:100540000F9211242F933F938F939F93AF93BF9359
:100550008091BF039091C003A091C103B091C203E9
:100560003091BE0323E0230F2D3720F40196A11D07
:10057000B11D05C026E8230F0296A11DB11D2093D1
:10058000BE038093BF039093C003A093C103B093B5
:10059000C2038091BA039091BB03A091BC03B091B8
:1005A000BD030196A11DB11D8093BA039093BB03B7
:1005B000A093BC03B093BD03BF91AF919F918F9166
:1005C0003F912F910F900FBE0F901F9018951F9283
:1005D0000F920FB60F9211240BB60F922F933F93E9
:1005E0004F935F936F937F938F939F93AF93BF933B
:1005F000EF93FF9383EC93E0BEDEFF91EF91BF9109
:10060000AF919F918F917F916F915F914F913F91AA
:100610002F910F900BBE0F900FBE0F901F9018954B
:100620001F920F920FB60F9211240BB60F922F93B9
:100630003F934F935F936F937F938F939F93AF936A
:10064000BF93EF93FF9383EC93E03CDEFF91EF9138
:10065000BF91AF919F918F917F916F915F914F91DA
:100660003F912F910F900BBE0F900FBE0F901F90D8
:1006700018951F920F920FB60F9211240BB60F927E
:100680002F933F934F935F936F937F938F939F939A
:10069000AF93BF93EF93FF9380E694E06CDEFF91FE
:1006A000EF91BF91AF919F918F917F916F915F91EA
:1006B0004F913F912F910F900BBE0F900FBE0F9057
:1006C0001F9018951F920F920FB60F9211240BB620
:1006D0000F922F933F934F935F936F937F938F93DB
:1006E0009F93AF93BF93EF93FF9380E694E0EADD8F
:1006F000FF91EF91BF91AF919F918F917F916F91FA
:100700005F914F913F912F910F900BBE0F900FBEB5
:100710000F901F901895E3ECF3E01382128248EEDD
:1007200053E060E070E0448355836683778385E01F
:1007300092E0918380832DEC30E0358724872CEC88
:1007400030E03787268728EC30E0318B208B29EC8E
:1007500030E0338B228B2AEC30E0358B248B2EEC6F
:1007600030E0378B268B118E128E138E148EE0E6BE
:10077000F4E01382128244835583668377839183E6
:10078000808385EC90E09587848784EC90E0978760
:10079000868780EC90E0918B808B81EC90E0938B4E
:1007A000828B82EC90E0958B848B86EC90E0978B2B
:1007B000868B118E128E138E148E0895789484B5C4
:1007C000826084BD84B5816084BD85B5826085BD4D
:1007D00085B5816085BD80916E00816080936E00DB
:1007E00010928100809181008260809381008091CD
:1007F000810081608093810080918000816080937E
:1008000080008091B10084608093B1008091B0003D
:1008100081608093B000809191008260809391000C
:10082000809191008160809391008091900081601F
:10083000809390008091A10082608093A1008091BC
:10084000A10081608093A1008091A00081608093CD
:10085000A00080912101826080932101809121017B
:10086000816080932101809120018160809320012B
:1008700080917A00846080937A0080917A0082600F
:1008800080937A0080917A00816080937A008091D1
:100890007A00806880937A001092C1000FE811E01E
:1008A000F8012491C9E4D1E0FE018491882399F0F4
:1008B00090E0880F991FFC01E85FFE4FA591B4916D
:1008C0008E5D9E4FFC01459154918FB7F8949C9199
:1008D000292B2C938FBFE0917004F091710482E07A
:1008E0008083E0916C04F0916D041082E0916E04BD
:1008F000F0916F048FEC808310927804E09174047F
:10090000F091750486E08083E0917204F0917304A5
:10091000808180618083E0917204F0917304808112
:1009200088608083E0917204F09173048081806814
:100930008083E0917204F091730480818F7D8083C5
:1009400084E192E0E9DD8FE292E0E6DD81E392E08E
:10095000E3DD83E992E0E0DD84ED92E0DDDD8FE22E
:1009600092E0DADD87E093E0D7DD8FE292E0D4DD3C
:1009700080E694E0E2DC892B29F080E694E0BBDCA1
:1009800080930002E091D303F091D40382E080834E
:10099000E091CF03F091D0031082E091D103F09168
:1009A000D20383E380831092DB03E091D703F091BD
:1009B000D80386E08083E091D503F091D60380814F
:1009C00080618083E091D503F091D60380818860B7
:1009D0008083E091D503F091D60380818068808385
:1009E000E091D503F091D60380818F7D8083E5ED82
:1009F000F1E08491F8010491FE01C491CC2309F443
:100A000065C0882309F454C090E0FC013197E231BD
:100A1000F10508F04DC08827EE58FF4F8F4F84C076
:100A2000809180008F7707C0809180008F7D03C008
:100A300080918000877F809380003AC084B58F7753
:100A400002C084B58F7D84BD33C08091B0008F77A4
:100A500003C08091B0008F7D8093B00029C0809149
:100A600090008F7707C0809190008F7D03C08091A8
:100A70009000877F809390001BC08091A0008F77AB
:100A800007C08091A0008F7D03C08091A000877F68
:100A90008093A0000DC0809120018F7707C08091C6
:100AA00020018F7D03C080912001877F80932001EA
:100AB000EC2FF0E0EE0FFF1FEE5DFE4FA591B4911D
:100AC0008FB7F8949C91092B0C938FBF8FE292E023
:100AD00023DD83E393E020DD8CE393E01DDD83E7FA
:100AE00093E01ADD8FE292E017DD60EB73E083ECB8
:100AF00093E0FDDC83EC93E020DC892B39F083EC80
:100B000093E0F9DB682F80E694E056DC80E694E021
:100B100014DC892B39F080E694E0EDDB682F83EC60
:100B200093E04ADCB0DCE6CFEE0FFF1F881F8BBFDF
:100B30000790F691E02D199481E090E0F89400C0C0
:040B4000F894FFCF57
:100B44003000000000DC0137019D017B018F012290
:100B5400020D0A00446F206E6F7420706F77657207
:100B640020746865204254206D6F64756C650020A4
:100B7400004F6E20746865204254206D6F64756C5C
:100B8400652C2070726573732074686520627574B7
:100B9400746F6E2073776974636820286B65657061
:100BA40020707265737365642C20616E64206174B7
:100BB400207468652073616D652074696D652070AB
:100BC4006F77657220746865204254206D6F647578
:100BD4006C6500546865204C4544206F6E20746831
:100BE40065204254206D6F64756C652073686F7561
:100BF4006C64206E6F7720666C617368206F6E2F53
:100C04006F66662065766572792032207365636F3E
:100C14006E64730043616E206E6F772072656C653D
:100C24006173652074686520627574746F6E2073D7
:100C34007769746368206F6E20746865204254205D
:100C44006D6F64756C6500416674657220656E74C1
:100C54006572696E67204154206D6F64652C207441
:100C6400797065203120616E642068697420736531
:100C74006E64004154206D6F64652E0052656D658D
:100C84006D62657220746F20746F207365742042E6
:100C94006F7468204E4C202620435220696E2074C5
:100CA40068652073657269616C206D6F6E69746F1D
:100CB400722E005468652048432D303520616363EB
:100CC4006570747320636F6D6D616E647320696EFB
:100CD40020626F746820757070657220636173653B
:100CE40020616E64206C6F776572206361736500A8
:0A0CF40041542B554152540A0D00E3
:00000001FF
